:020000040800F2
:1000000000000220A140000805380008113800084F
:10001000393800083F380008453800080000000063
:100020000000000000000000000000004B38000845
:1000300059380008000000006738000875380008CB
:10004000F1400008F1400008F1400008F1400008CC
:10005000F1400008F1400008F1400008F1400008BC
:10006000F1400008F1400008F1400008F1400008AC
:10007000F1400008F1400008F1400008F14000089C
:10008000F1400008F1400008853800089938000860
:10009000AD380008F1400008F1400008F1400008C8
:1000A000F1400008F1400008F1400008F14000086C
:1000B000C1380008D5380008E9380008FD380008C4
:1000C000F140000811390008F1400008F140000833
:1000D000F1400008F1400008F1400008253900080F
:1000E000F1400008F1400008F140000839390008EB
:1000F000F1400008F1400008F1400008F14000081C
:10010000F14000084D390008F1400008F1400008B6
:10011000F1400008F1400008F1400008F1400008FB
:10012000F1400008F1400008F14000086139000882
:10013000F1400008F1400008F1400008F1400008DB
:10014000F1400008F1400008F1400008F1400008CB
:10015000F140000875390008F140000889390008AD
:10016000F1400008F1400008F1400008F1400008AB
:10017000F1400008F1400008F140000800000000D4
:08018000F1400008F140000805
:1001900010B5054C237833B9044B13B10448AFF3C1
:1001A00000800123237010BD280100200000000002
:1001B0007C19010808B5034B1BB103490348AFF391
:1001C000008008BD000000002C0100207C190108FF
:1001D000034613F8012B002AFBD1181A0138704787
:1001E00001F0FF01102A2BDB10F0070F08D010F8E8
:1001F000013B013A8B422DD010F0070F42B3F6D1EC
:10020000F0B441EA012141EA014122F007047FF004
:1002100000070023F0E80256083C85EA010586EA5B
:10022000010685FA47F5A3FA87F586FA47F6A5FA97
:1002300087F68EB9EED1F0BC01F0FF0102F00702A3
:1002400032B110F8013B013A83EA010313B1F8D14E
:100250000020704701387047002D06BF354603382F
:10026000073815F0010F07D1013015F4807F02BF68
:10027000013015F4C03F0130F0BC0138704700BFB9
:1002800081F0004102E000BF83F0004330B54FEA47
:1002900041044FEA430594EA050F08BF90EA020FB4
:1002A0001FBF54EA000C55EA020C7FEA645C7FEA47
:1002B000655C00F0E2804FEA5454D4EB5555B8BF6A
:1002C0006D420CDD2C4480EA020281EA030382EADB
:1002D000000083EA010180EA020281EA0303362D6D
:1002E00088BF30BD11F0004F4FEA01314FF4801C40
:1002F0004CEA113102D0404261EB410113F0004F52
:100300004FEA03334CEA133302D0524263EB430308
:1003100094EA050F00F0A780A4F10104D5F1200EA6
:100320000DDB02FA0EFC22FA05F2801841F1000101
:1003300003FA0EF2801843FA05F359410EE0A5F1D5
:1003400020050EF1200E012A03FA0EFC28BF4CF006
:10035000020C43FA05F3C01851EBE37101F00045BC
:1003600007D54FF0000EDCF1000C7EEB00006EEBC9
:100370000101B1F5801F1BD3B1F5001F0CD3490853
:100380005FEA30004FEA3C0C04F101044FEA4452AA
:1003900012F5800F80F09A80BCF1004F08BF5FEA31
:1003A000500C50F1000041EB045141EA050130BD11
:1003B0005FEA4C0C404141EB0101013C28BFB1F523
:1003C000801FE9D291F0000F04BF01460020B1FA6E
:1003D00081F308BF2033A3F10B03B3F120020CDA41
:1003E0000C3208DD02F1140CC2F10C0201FA0CF01F
:1003F00021FA02F10CE002F11402D8BFC2F1200C84
:1004000001FA02F120FA0CFCDCBF41EA0C01904039
:10041000E41AA2BF01EB0451294330BD6FEA040482
:100420001F3C1CDA0C340EDC04F11404C4F120026D
:1004300020FA04F001FA02F340EA030021FA04F37F
:1004400045EA030130BDC4F10C04C4F1200220FAD6
:1004500002F001FA04F340EA0300294630BD21FA14
:1004600004F0294630BD94F0000F83F4801306BFDA
:1004700081F480110134013D4EE77FEA645C18BFCE
:100480007FEA655C29D094EA050F08BF90EA020F65
:1004900005D054EA000C04BF1946104630BD91EA5D
:1004A000030F1EBF0021002030BD5FEA545C05D160
:1004B0004000494128BF41F0004130BD14F580049F
:1004C0003CBF01F5801130BD01F0004545F0FE4113
:1004D00041F470014FF0000030BD7FEA645C1ABF48
:1004E000194610467FEA655C1CBF0B46024650EA7F
:1004F000013406BF52EA033591EA030F41F40021AB
:1005000030BD00BF90F0000F04BF0021704730B530
:100510004FF4806404F132044FF000054FF0000105
:1005200050E700BF90F0000F04BF0021704730B5C6
:100530004FF4806404F1320410F0004548BF40429B
:100540004FF000013EE700BF42004FEAE2014FEAF0
:1005500031014FEA02701FBF12F07F4393F07F4FCB
:1005600081F06051704732F07F4208BF704793F0CE
:100570007F4F04BF41F40021704730B54FF46074E1
:1005800001F0004521F000411CE700BF50EA0102E4
:1005900008BF704730B54FF000050AE050EA01028D
:1005A00008BF704730B511F0004502D5404261EBFD
:1005B00041014FF4806404F132045FEA915C3FF43E
:1005C000D8AE4FF003025FEADC0C18BF03325FEADB
:1005D000DC0C18BF033202EBDC02C2F1200300FA8C
:1005E00003FC20FA02F001FA03FE40EA0E0021FAB1
:1005F00002F11444BDE600BF70B54FF0FF0C4CF49F
:10060000E06C1CEA11541DBF1CEA135594EA0C0F50
:1006100095EA0C0F00F0DEF82C4481EA030621EA8B
:100620004C5123EA4C5350EA013518BF52EA0335C6
:1006300041F4801143F4801338D0A0FB02CE4FF078
:100640000005E1FB02E506F00042E0FB03E54FF0A8
:100650000006E1FB03569CF0000F18BF4EF0010EA0
:10066000A4F1FF04B6F5007F64F5407404D25FEA9C
:100670004E0E6D4146EB060642EAC62141EA55514F
:100680004FEAC52040EA5E504FEACE2EB4F1FD0C91
:1006900088BFBCF5E06F1ED8BEF1004F08BF5FEA0F
:1006A000500E50F1000041EB045170BD06F00046C1
:1006B00046EA010140EA020081EA0301B4EB5C046E
:1006C000C2BFD4EB0C0541EA045170BD41F4801166
:1006D0004FF0000E013C00F3AB8014F1360FDEBF8B
:1006E000002001F0004170BDC4F10004203C35DA67
:1006F0000C341BDC04F11404C4F1200500FA05F3EA
:1007000020FA04F001FA05F240EA020001F000428A
:1007100021F0004110EBD37021FA04F642EB060100
:100720005EEA430E08BF20EAD37070BDC4F10C042A
:10073000C4F1200500FA04F320FA05F001FA04F2EE
:1007400040EA020001F0004110EBD37041F10001DA
:100750005EEA430E08BF20EAD37070BDC4F12005E5
:1007600000FA05F24EEA020E20FA04F301FA05F24D
:1007700043EA020321FA04F001F0004121FA04F2F5
:1007800020EA020000EBD3705EEA430E08BF20EAC5
:10079000D37070BD94F0000F0FD101F000464000FF
:1007A00041EB010111F4801F08BF013CF7D041EA81
:1007B000060195F0000F18BF704703F00046520085
:1007C00043EB030313F4801F08BF013DF7D043EA56
:1007D0000603704794EA0C0F0CEA135518BF95EA0C
:1007E0000C0F0CD050EA410618BF52EA4306D1D193
:1007F00081EA030101F000414FF0000070BD50EAB2
:10080000410606BF1046194652EA430619D094EA3B
:100810000C0F02D150EA013613D195EA0C0F05D125
:1008200052EA03361CBF104619460AD181EA030179
:1008300001F0004141F0FE4141F470014FF0000031
:1008400070BD41F0FE4141F4780170BD70B54FF0CC
:10085000FF0C4CF4E06C1CEA11541DBF1CEA13554C
:1008600094EA0C0F95EA0C0F00F0A7F8A4EB05042E
:1008700081EA030E52EA03354FEA013100F0888025
:100880004FEA03334FF0805545EA131343EA1263EE
:100890004FEA022245EA111545EA10654FEA0026A3
:1008A0000EF000419D4208BF964244F1FD0404F55C
:1008B000407402D25B084FEA3202B61A65EB0305B8
:1008C0005B084FEA32024FF480104FF4002CB6EB75
:1008D000020E75EB030E22BFB61A754640EA0C00F5
:1008E0005B084FEA3202B6EB020E75EB030E22BF35
:1008F000B61A754640EA5C005B084FEA3202B6EB76
:10090000020E75EB030E22BFB61A754640EA9C0034
:100910005B084FEA3202B6EB020E75EB030E22BF04
:10092000B61A754640EADC0055EA060E18D04FEAC2
:10093000051545EA16754FEA06164FEAC30343EA62
:1009400052734FEAC2025FEA1C1CC0D111F4801F2F
:100950000BD141EA00014FF000004FF0004CB6E728
:1009600011F4801F04BF01430020B4F1FD0C88BFC7
:10097000BCF5E06F3FF6AFAEB5EB030C04BFB6EBD2
:10098000020C5FEA500C50F1000041EB045170BDC5
:100990000EF0004E4EEA113114EB5C04C2BFD4EBF2
:1009A0000C0541EA045170BD41F480114FF0000E76
:1009B000013C90E645EA060E8DE60CEA135594EAF2
:1009C0000C0F08BF95EA0C0F3FF43BAF94EA0C0FF5
:1009D0000AD150EA01347FF434AF95EA0C0F7FF46A
:1009E00025AF104619462CE795EA0C0F06D152EABE
:1009F00003353FF4FDAE1046194622E750EA4106A2
:100A000018BF52EA43067FF4C5AE50EA41047FF4B2
:100A10000DAF52EA43057FF4EBAE12E74FEA410215
:100A200012F5001215D211D56FF47873B3EB625240
:100A300012D94FEAC12343F0004343EA505311F067
:100A4000004F23FA02F018BF404270474FF00000F9
:100A5000704750EA013005D111F0004008BF6FF037
:100A6000004070474FF00000704700BF4A0011D2AD
:100A700012F5001211D20DD56FF47873B3EB6252F8
:100A80000ED44FEAC12343F0004343EA505323FA04
:100A900002F070474FF00000704750EA013002D179
:100AA0004FF0FF3070474FF00000704780F000407B
:100AB00002E000BF81F0004142001FBF5FEA410336
:100AC00092EA030F7FEA226C7FEA236C6AD04FEA36
:100AD0001262D2EB1363C1BFD2184140484041407B
:100AE000B8BF5B42192B88BF704710F0004F40F42D
:100AF000000020F07F4018BF404211F0004F41F449
:100B0000000121F07F4118BF494292EA030F3FD014
:100B1000A2F1010241FA03FC10EB0C00C3F1200327
:100B200001FA03F100F0004302D5494260EB4000B6
:100B3000B0F5000F13D3B0F1807F06D340084FEA21
:100B4000310102F10102FE2A51D2B1F1004F40EB16
:100B5000C25008BF20F0010040EA0300704749007E
:100B600040EB0000013A28BFB0F5000FEDD2B0FA1B
:100B700080FCACF1080CB2EB0C0200FA0CF0AABF3E
:100B800000EBC25052421843BCBFD04018437047DC
:100B900092F0000F81F4000106BF80F400000132E2
:100BA000013BB5E74FEA41037FEA226C18BF7FEAB9
:100BB000236C21D092EA030F04D092F0000F08BFFB
:100BC0000846704790EA010F1CBF0020704712F0E2
:100BD0007F4F04D1400028BF40F00040704712F121
:100BE00000723CBF00F50000704700F0004343F086
:100BF000FE4040F4000070477FEA226216BF0846BC
:100C00007FEA23630146420206BF5FEA412390EA7E
:100C1000010F40F4800070474FF0000304E000BF74
:100C200010F0004348BF40425FEA000C08BF704725
:100C300043F0964301464FF000001CE050EA0102E9
:100C400008BF70474FF000030AE000BF50EA0102FE
:100C500008BF704711F0004302D5404261EB4101EB
:100C60005FEA010C02BF84460146002043F0B64310
:100C700008BFA3F18053A3F50003BCFA8CF2083A35
:100C8000A3EBC25310DB01FA02FC634400FA02FC3E
:100C9000C2F12002BCF1004F20FA02F243EB020045
:100CA00008BF20F00100704702F1200201FA02FCA7
:100CB000C2F1200250EA4C0021FA02F243EB02009A
:100CC00008BF20EADC70704753B94AB9002908BF51
:100CD00000281CBF4FF0FF314FF0FF3000F074B917
:100CE000ADF1080C6DE904CE00F006F8DDF804E083
:100CF000DDE9022304B070472DE9F047089D044662
:100D00008E46002B4DD18A42944669D9B2FA82F2BE
:100D100052B101FA02F3C2F1200120FA01F10CFAFA
:100D200002FC41EA030E94404FEA1C48210CBEFB32
:100D3000F8F61FFA8CF708FB16E341EA034306FBBB
:100D400007F199420AD91CEB030306F1FF3080F04A
:100D50001F81994240F21C81023E63445B1AA4B297
:100D6000B3FBF8F008FB103344EA034400FB07F739
:100D7000A7420AD91CEB040400F1FF3380F00A817A
:100D8000A74240F207816444023840EA0640E41B6F
:100D900000261DB1D4400023C5E900433146BDE81B
:100DA000F0878B4209D9002D00F0EF800026C5E9BD
:100DB000000130463146BDE8F087B3FA83F6002ED5
:100DC0004AD18B4202D3824200F2F980841A61EB4D
:100DD000030301209E46002DE0D0C5E9004EDDE76B
:100DE00002B9FFDEB2FA82F2002A40F09280A1EB53
:100DF0000C014FEA1C471FFA8CFE0126200CB1FBA8
:100E0000F7F307FB131140EA01410EFB03F08842A0
:100E100008D91CEB010103F1FF3802D2884200F22D
:100E2000CB804346091AA4B2B1FBF7F007FB1011BF
:100E300044EA01440EFB00FEA64508D91CEB04045D
:100E400000F1FF3102D2A64500F2BB800846A4EBB8
:100E50000E0440EA03409CE7C6F12007B34022FAA3
:100E600007FC4CEA030C20FA07F401FA06F31C43D2
:100E7000F9404FEA1C4900FA06F3B1FBF9F8200CDF
:100E80001FFA8CFE09FB181140EA014108FB0EF025
:100E9000884202FA06F20BD91CEB010108F1FF3A75
:100EA00080F08880884240F28580A8F10208614481
:100EB000091AA4B2B1FBF9F009FB101144EA01418F
:100EC00000FB0EFE8E4508D91CEB010100F1FF343A
:100ED0006CD28E456AD90238614440EA0840A0FBD2
:100EE0000294A1EB0E01A142C846A64656D353D0A8
:100EF0005DB1B3EB080261EB0E0101FA07F722FACC
:100F000006F3F1401F43C5E9007100263146BDE8F4
:100F1000F087C2F12003D8400CFA02FC21FA03F357
:100F2000914001434FEA1C471FFA8CFEB3FBF7F0D8
:100F300007FB10360B0C43EA064300FB0EF69E42FD
:100F400004FA02F408D91CEB030300F1FF382FD296
:100F50009E422DD9023863449B1B89B2B3FBF7F63E
:100F600007FB163341EA034106FB0EF38B4208D917
:100F70001CEB010106F1FF3816D28B4214D9023E58
:100F80006144C91A46EA004638E72E46284605E776
:100F90000646E3E61846F8E64B45A9D2B9EB020847
:100FA00064EB0C0E0138A3E74646EAE7204694E7D7
:100FB0004046D1E7D0467BE7023B614432E730460A
:100FC00009E76444023842E7704700BF80B584B047
:100FD00000AF3B4600221A605A609A60DA60214BEB
:100FE000214A1A601F4B4FF480325A601D4B002279
:100FF0009A601C4B00221A611A4B00221A76194B78
:10100000002283F82020174B0022DA62154B174A82
:101010009A62144B0022DA60124B0122DA61114B02
:10102000002283F830200F4B01225A610D4803F053
:10103000F7F80346002B01D002F0F2F810233B60D2
:1010400001237B600023BB603B461946054803F043
:101050003BFB0346002B01D002F0E2F800BF103743
:10106000BD4680BD44010020002001400100000F6A
:1010700080B584B000AF78607B681B680E4A9342ED
:1010800015D10023FB600D4B5B6C0C4A43F480735D
:1010900053640A4B5B6C03F48073FB60FB680022B3
:1010A0000021122004F0ADFB122004F0C6FB00BFAB
:1010B0001037BD4680BD00BF00200140003802400F
:1010C00080B500AF184B194A1A60174B0C225A60B2
:1010D000154B4FF000429A60134B0022DA60124B1E
:1010E0004FF420221A61104B4FF480125A610E4BBC
:1010F00000221A760C4B01225A760B4B00229A766C
:10110000094B0122DA76084B00221A77064B00229F
:101110005A77054803F000FD0346002B01D002F08A
:101120007FF800BF80BD00BF8C010020006400403C
:1011300080B58AB000AF786007F1140300221A600E
:101140005A609A60DA601A617B681B68214A934290
:101150003BD100233B61204B1B6C1F4A43F00073C3
:1011600013641D4B1B6C03F000733B613B69002350
:10117000FB60194B1B6B184A43F008031363164BB3
:101180001B6B03F00803FB60FB6803237B610223F6
:10119000BB610023FB6103233B6209237B6207F1F0
:1011A000140319460D4804F08BFF00220021132080
:1011B00004F027FB132004F040FB00220021142040
:1011C00004F01FFB142004F038FB00BF2837BD4695
:1011D00080BD00BF0064004000380240000C0240A7
:1011E00080B582B000AF00237B60104B1B6B0F4AB1
:1011F00043F4800313630D4B1B6B03F480037B608C
:101200007B68002200213B2004F0FBFA3B2004F025
:1012100014FB00220021452004F0F3FA452004F0DD
:101220000CFB00BF0837BD4680BD00BF0038024040
:1012300080B58AB000AF07F1140300221A605A602B
:101240009A60DA601A6100233B61454B1B6B444A8C
:1012500043F004031363424B1B6B03F004033B6135
:101260003B690023FB603E4B1B6B3D4A43F0800310
:1012700013633B4B1B6B03F08003FB60FB68002395
:10128000BB60374B1B6B364A43F001031363344B8F
:101290001B6B03F00103BB60BB6800237B60304B1A
:1012A0001B6B2F4A43F0020313632D4B1B6B03F0A0
:1012B00002037B607B6800233B60294B1B6B284A41
:1012C00043F008031363264B1B6B03F008033B60DA
:1012D0003B68002248F2C001224805F0A5F8002230
:1012E0000821214805F0A0F8C0237B610123BB61E0
:1012F0000023FB6100233B6207F1140319461948E0
:1013000004F0DEFE47F6E0037B610023BB610223AD
:10131000FB6107F114031946134804F0D1FE4FF4A2
:1013200000437B610123BB610223FB6100233B621D
:1013300007F1140319460B4804F0C2FE08237B6131
:101340000123BB610023FB6100233B6207F114030F
:101350001946054804F0B4FE00BF2837BD4680BDDD
:101360000038024000000240000C024080B500AF8F
:10137000124B134A1A60114B124A5A600F4B00224B
:101380009A600E4B0022DA600C4B4FF480421A61D7
:101390000A4B00225A61094B00229A61074B002236
:1013A000DA61064B00221A62044805F057F803463A
:1013B000002B01D001F034FF00BF80BDB40100203C
:1013C00000540040801A060080B500AF124B134A4B
:1013D0001A60114B124A5A600F4B00229A600E4B52
:1013E0000022DA600C4B4FF480421A610A4B002253
:1013F0005A61094B00229A61074B0022DA61064BC1
:1014000000221A62044805F029F80346002B01D097
:1014100001F006FF00BF80BD080200200058004018
:10142000801A060080B58CB000AF786007F11C030D
:1014300000221A605A609A60DA601A617B681B6841
:101440003A4A934234D10023BB61394B1B6B384A73
:1014500043F002031363364B1B6B03F00203BB61C3
:10146000BB69C023FB6112233B6200237B62032321
:10147000BB620423FB6207F11C0319462D4804F0EC
:101480001FFE00237B612A4B1B6C294A43F4001387
:101490001364274B1B6C03F400137B617B690022F0
:1014A00000211F2004F0ADF91F2004F0C6F939E037
:1014B0007B681B68204A934234D100233B611C4B5C
:1014C0001B6B1B4A43F002031363194B1B6B03F0A6
:1014D00002033B613B694FF44063FB6112233B62B3
:1014E00000237B620323BB620423FB6207F11C031E
:1014F0001946104804F0E4FD0023FB600C4B1B6C04
:101500000B4A43F480031364094B1B6C03F4800300
:10151000FB60FB6800220021212004F072F92120E9
:1015200004F08BF900BF3037BD4680BD0054004049
:1015300000380240000402400058004080B584B0EA
:1015400000AFF860B9607A607B689AB26423B968CA
:1015500003480AF094F87B6818461037BD4680BDF2
:10156000341701202DE9B04FA0B000AF4FF00002BA
:101570004FF00003C7E91E2307F16003002219465C
:101580005D4807F02DFE07F17403002219465A4802
:1015900007F008FF7B6E00221C461546D7E91E2384
:1015A00042EA040A43EA050BC7E91EAB97F862302A
:1015B000DBB20022984691464FF000004FF0000148
:1015C0004FEA092141EA18614FEA0820D7E91E23B2
:1015D00042EA0004BC620B43FB62D7E90A34C7E964
:1015E0001E3497F86130DBB20022BB65FA654FF01C
:1015F00000004FF00001D7E916452B461904234699
:1016000041EA134123461804D7E91E2342EA0004A5
:101610003C620B437B62D7E90834C7E91E3497F874
:101620006030DBB200223B657A65D7E914120B46C5
:101630001B0AFB640B461B06BB64D7E91E23D7E9D4
:10164000124521461143B96129461943F961D7E989
:101650000634C7E91E3497F87630DBB200223B64CB
:101660007A644FF000024FF00003396C0B00002247
:10167000D7E91E0140EA02043C610B437B61D7E9D4
:101680000434C7E91E3497F87530DBB20022BB631F
:10169000FA634FF000024FF00003B96B0B02002217
:1016A000D7E91E0140EA0204BC600B43FB60D7E9A6
:1016B0000234C7E91E3497F87730DBB200223B636F
:1016C0007A634FF000024FF00003396B0B040022E5
:1016D000D7E91E0140EA02043C600B437B60D7E976
:1016E0000034C7E91E34D7E91E2310461946803757
:1016F000BD46BDE8B08F00BFAC14012080B586B0F8
:1017000000AF00200BF026FF00221F491F480EF0FB
:10171000E1F803467B6179691D480EF06DFF7B6936
:10172000002B1DD01B4B1C4A1A601A4B1B4A5A60D7
:10173000184B1B4A9A6011200EF066FE03461A46AB
:10174000144BDA60134BDB687A69164918460EF0C1
:10175000F1FF01F065FD0F4BDB6818460EF05CFEF3
:10176000114B01221A600C4B7B60104BBB600C4B81
:10177000FB600F4B3B613B1D184600F0CBF800BFF0
:101780001837BD4680BD00BFA41A01086C020020B6
:10179000A81A01085C020020B81A0108BC1A010846
:1017A000C41A0108C81A010878140120DC1A0108BB
:1017B000E41A0108000000002DE9F04794B00AAFD8
:1017C000F861B9617A61FFF7CDFEC7E90801FB69ED
:1017D0005E68D7E908014FF000024FF000030A0CE1
:1017E00000239246D7E908014FF000024FF00003B2
:1017F0000B0443EA104302044FF000004FF00001D5
:10180000180E00213861D7E908014FF000024FF0AF
:1018100000030B0643EA102302064FF000004FF0CE
:101820000001180E0021F860D7E908014FF000020E
:101830004FF00003030000224FF000004FF00001C2
:10184000180E0021B860D7E908014FF000024FF0F0
:101850000003030200224FF000004FF00001180EB9
:1018600000217860D7E908014FF000024FF0000333
:10187000030400224FF000004FF00001180E002179
:101880003860D7E90823D443DD4304F0FF084FF064
:10189000000940464946FFF7D1F903461846FEF7CE
:1018A00053FE1AA3D3E90023FEF7A6FE02460B4619
:1018B00010461946FFF7B2F8FB691B68FA6992688F
:1018C000F969C96808910792069305903B680493EB
:1018D0007B680393BB680293FB6801933B690093A9
:1018E000534632460849B8690EF024FFB869FEF73E
:1018F0006FFC02467B691A60BB6918462837BD46F3
:10190000BDE8F087AFF30080F01A0108575757572A
:1019100057570F4080B5ADF5825D82B000AF07F13B
:10192000480343F8440C64200EF06EFD034607F5AF
:10193000825202F10402136007F5815303F11C0384
:1019400007F1480210461A4607F5825303F10403D3
:10195000196850F8440CFFF72FFF07F5815303F186
:101960001C031B6801331A4607F5825303F1040375
:101970001968684801F0FDFC07F5825303F1040380
:10198000196865480EF038FE644B1B68002B01D1C6
:10199000FFF7B4FE07F128031C3B322260491846CA
:1019A0000DF0DEFF034607F5825213605C4A07F52F
:1019B000825319685B480EF01FFE07F582531B68BF
:1019C000002B1FD0584B594A1A60574B584A5A603F
:1019D000554B584A9A6010200EF016FD03461A46E1
:1019E000514BDA60504BDB6807F58252126852495E
:1019F00018460EF09FFE01F013FC4B4BDB681846B7
:101A00000EF00AFD07F5815303F11C031A6807F174
:101A1000080307F128001C3807F5825101F1040181
:101A200009680EF069F9034607F58252136007F161
:101A3000480353F8403C3A4A07F5825109683F4849
:101A40000EF0DAFD07F582531B68002B1FD0364BD2
:101A5000364A1A60344B364A5A60334B354A9A60DC
:101A600011200EF0D1FC03461A462F4BDA602E4BA4
:101A7000DB6807F582521268314918460EF05AFEAB
:101A800001F0CEFB284BDB6818460EF0C5FC07F1D1
:101A900028031C3B18460EF041FB034607F5825213
:101AA000136007F58253196826480EF0A5FD07F567
:101AB00082531B68002B1FD01B4B1C4A1A601A4B09
:101AC0001B4A5A60184B1B4A9A6011200EF09CFC6E
:101AD00003461A46144BDA60134BDB6807F5825253
:101AE0001268194918460EF025FE01F099FB0E4BBD
:101AF000DB6818460EF090FC07F5825303F10403EF
:101B000018680EF089FC00BF07F582570837BD46FC
:101B100080BD00BFD4120020281B010878140120CA
:101B2000B0120020301B01085C020020B81A010826
:101B3000BC1A0108C41A0108441B0108541B0108FF
:101B40006C1B0108801B0108901B010880B586B042
:101B500000AF304809F0E6F8002208212E4804F0D2
:101B600063FC01224FF400412C4804F05DFC00238B
:101B70007B6146E02A4A7B691B01134408331A68DB
:101B800027497B691B010B440C331B8819461046FF
:101B900004F032FC03461946214A7B691B011344B9
:101BA000043319601F4B7B601F4BBB601F4BFB60F6
:101BB0001B4A7B691B0113441B681846FEF708FB90
:101BC0000346033318460EF01FFC03463B61386999
:101BD000134A7B691B0113441A6811497B691B0175
:101BE0000B4404331B6812490EF0A4FD3B1D18463C
:101BF000FFF790FE3B6918460EF00EFC7B6901333F
:101C00007B617B69062BB5D900BF00BF1837BD4685
:101C100080BD00BFA4160120000C0240000002405D
:101C200000000020B81A0108DC1A0108A41B0108F2
:101C3000AC1B010890B58FB000AF00237B635FE061
:101C40007F4A7B6B1B01134404331C687C4A7B6B0B
:101C50001B01134408331A6879497B6B1B010B4441
:101C60000C331B881946104604F0C6FB03469C4201
:101C700043D0744B7B62744BBB62744BFB62704A03
:101C80007B6B1B0113441B681846FEF7A1FA034641
:101C9000033318460EF0B8FB03463B63386B684AC3
:101CA0007B6B1B0113441A6865497B6B1B010B445A
:101CB00004331B68002B0CBF01230023DBB26449F3
:101CC0000EF038FD07F124031846FFF723FE3B6BA7
:101CD00018460EF0A1FB5A4A7B6B1B0113440433D8
:101CE0001B68002B0CBF01230023DBB21946544AAA
:101CF0007B6B1B011344043319607B6B01337B63E3
:101D00007B6B062B9CD9534B1B68002B73D0524B1B
:101D10001B68002B04D102F053FA03464E4A1360AD
:101D200002F04EFA01464D4B1B68642203FB02F29F
:101D3000494B1B68134499425DD9484B1B68404A84
:101D40001B01134408331A68444B1B683C491B01B0
:101D50000B440C331B881946104604F04DFB034618
:101D60001A463E4B1B681146354A1B011344043387
:101D70001960344B7B61344BBB61344BFB61374B97
:101D80001B682F4A1B0113441B681846FEF720FAF4
:101D90000346033318460EF037FB03463B62386AAE
:101DA0002E4B1B68264A1B0113441A682B4B1B68D9
:101DB00023491B010B4404331B6825490EF0BAFC70
:101DC00007F114031846FFF7A5FD3B6A18460EF00D
:101DD00023FB224B1B680133204A13601F4B1B68F7
:101DE000072B08D11B4B00221A601C4B00221A60E3
:101DF000194B00221A601A4B1B68002B1CD0114B88
:101E00007B60114BBB60174BFB6005200EF0FCFAAA
:101E100003463B613B69144A1268144918460EF0A8
:101E200089FC3B1D1846FFF775FD3B6918460EF00F
:101E3000F3FA0B4B00221A6000BF3C37BD4690BD41
:101E400000000020B81A0108DC1A0108A41B0108D0
:101E5000AC1B0108A0130120801401208414012070
:101E600098130120B41B01089C130120C01B01081A
:101E700090B589B000AF8021354804F0BDFA034623
:101E8000FB614021324804F0B7FA0346BB612021D0
:101E90002F4804F0B1FA03467B612E4B1B68002BE0
:101EA0004CD1FB69002B49D0BB69002B46D07B6924
:101EB000002B43D0284B1B68002B08D1264B012256
:101EC0001A6002F07DF90346244A13603AE002F0FA
:101ED00077F90246214B1B68D31AB3F57A7F31D9C3
:101EE0001C4B01221A6000224FF400411C4804F0F0
:101EF0009BFA1C4808F016FF01220821144804F040
:101F000093FA194B7B60194BBB60194BFB600A209D
:101F10000EF07AFA03463B613C6902F051F9034640
:101F20001A46144920460EF005FC3B1D1846FFF7E3
:101F3000F1FC3B6918460EF06FFA03E0064B0022F5
:101F40001A6000E000BF00BF2437BD4690BD00BF4F
:101F5000000C0240881401208C14012090140120F0
:101F60000000024014160120B81A0108DC1A01080A
:101F700098190108C01B010880B58AB000AF002382
:101F80007B610023BB610123FB6100233B600023D5
:101F90007B600023BB600023FB6000233B610123C7
:101FA0003B620E237B623B4619464A4802F0B0FE74
:101FB0000346002B1CD0484B484A1A60464B484AFF
:101FC0005A60454B474A9A6019200EF01DFA0346A5
:101FD0001A46414BDA60404BDB68434918460EF025
:101FE000A9FB01F01DF93C4BDB6818460EF014FA12
:101FF000384802F06DFF0346002B1CD0364B374AA1
:102000001A60354B364A5A60334B364A9A60122072
:102010000EF0FAF903461A462F4BDA602E4BDB68B6
:10202000324918460EF086FB01F0FAF82A4BDB68BD
:1020300018460EF0F1F90221264803F09FF80346F6
:10204000002B1CD0244B254A1A60234B244A5A608B
:10205000214B244A9A603D200EF0D6F903461A46D9
:102060001D4BDA601C4BDB68214918460EF062FB01
:1020700001F0D6F8184BDB6818460EF0CDF91D4B71
:1020800001221A600421134803F078F80346002B5C
:102090001CD0114B114A1A600F4B114A5A600E4B5B
:1020A000104A9A6036200EF0AFF903461A460A4BE2
:1020B000DA60094BDB68104918460EF03BFB01F073
:1020C000AFF8054BDB6818460EF0A6F900BF2837BD
:1020D000BD4680BD8C0100205C020020B81A0108BA
:1020E000BC1A0108C41B0108C81B0108E41B010835
:1020F000F81B010874140120381C0108F0B589B0E0
:1021000006AF78608F4B904A0021786802F024FF78
:102110000346002B1CD08D4B8D4A1A608B4B8D4A89
:102120005A608A4B8C4A9A6019200EF06DF903466A
:102130001A46864BDA60854BDB68884918460EF0F4
:10214000F9FA01F06DF8814BDB6818460EF064F97E
:102150007D4B19687B4B1B789C467A4B5B789E467F
:10216000784B9B781A46774BDB781846754B1B7972
:102170001C46744B5B791D46724B9B791E46714B16
:10218000DB790593049603950294019000927346BF
:10219000624673480EF030FA6B4B1B6840F2B16236
:1021A00093423BD040F2B162934200F2C680AD2B25
:1021B00026D8A02BC0F0C180A03B0D2B00F2BD8023
:1021C00001A252F823F000BF332200083B2300088D
:1021D000492200085F2200083B23000875220008FE
:1021E0008B220008A1220008B7220008CD22000897
:1021F000E3220008F92200080F2300082523000825
:10220000B3F5D66F40F09980564B4E4A92E80300E2
:1022100083E80300544B01221A608EE0514B494A77
:10222000083392E8030083E803004F4B01225A6011
:1022300083E04C4B434A103392E8030083E80300E9
:10224000494B01229A6078E0464B3E4A183392E8A7
:10225000030083E80300444B0122DA606DE0414B48
:10226000384A203392E8030083E803003E4B012202
:102270001A6162E03B4B334A283392E8030083E85B
:102280000300394B01225A6157E0364B2D4A303357
:1022900092E8030083E80300334B01229A614CE08B
:1022A000304B284A383392E8030083E803002E4B72
:1022B0000122DA6141E02B4B224A403392E80300CD
:1022C00083E80300284B01221A6236E0254B1D4AA1
:1022D000483392E8030083E80300234B01225A624B
:1022E0002BE0204B174A503392E8030083E80300A9
:1022F0001D4B01229A6220E01A4B124A583392E891
:10230000030083E80300184B0122DA6215E0154B45
:102310000C4A603392E8030083E80300124B012269
:102320001A630AE00F4B074A683392E8030083E818
:1023300003000D4B01225A6300BF00BF0C37BD469E
:10234000F0BD00BFC4130120A81301205C020020CF
:10235000B81A0108BC1A0108C41B0108701C010846
:102360008C1C0108CC1301203C14012080B582B0E4
:1023700000AF78600221154802F026FF0346002BCB
:102380001CD0134B134A1A60114B134A5A60104B5E
:10239000124A9A603F200EF037F803461A460C4B5B
:1023A000DA600B4BDB680E4918460EF0C3F900F0FB
:1023B00037FF074BDB6818460EF02EF8094B00225A
:1023C0001A6000BF0837BD4680BD00BF8C010020E9
:1023D0005C020020B81A0108BC1A0108C41B0108DD
:1023E000D01C010874140120F0B58FB006AF002393
:1023F000FB6177E0534AFB6952F82330002B6ED023
:10240000FB69012B01D8504B00E0504BFB60FB698E
:10241000002B0FD14E4AFB69DB0013445A794C491B
:10242000FB69DB000B449B791343DBB2002B01D02B
:10243000484B00E0484B3B61484AFB6952F8233067
:102440007B6128200DF0E0FF0346BB61B869404A7C
:10245000FB6912F833309C463D4AFB69DB001344AC
:102460005B789E463A4AFB69DB0013449B78194629
:10247000374AFB69DB001344DB781C46344AFB69AE
:10248000DB0013441B791D46314AFB69DB00134412
:102490005B791E462E4AFB69DB0013449B797B6007
:1024A0002B4AFB69DB001344DB7905937B680493BB
:1024B00003960295019400917346624628490EF0F6
:1024C00039F907F10C031846FFF724FABB691846DF
:1024D0000DF0A2FF1B4AFB69002142F82310FB69A3
:1024E0000133FB61FB690D2B84D91E4B1B68002B4C
:1024F00023D102211C4802F041FE0346002B1CD0D0
:102500001A4B1B4A1A60194B124A5A60174B194A48
:102510009A603D200DF078FF03461A46134BDA60AF
:10252000124BDB68144918460EF004F900F078FEEF
:102530000E4BDB6818460DF06FFF00BF2437BD4619
:10254000F0BD00BF3C140120A8190108101D0108AE
:10255000CC130120BC1A0108DC1A010880000020FD
:10256000141D0108741401208C0100205C0200205D
:10257000B81A0108C41B0108F81B010880B582B015
:1025800000AF7860104B114A1A600F4B104A5A6026
:102590000D4B104A9A601A200DF036FF03461A467A
:1025A000094BDA60084BDB680B4918460EF0C2F89D
:1025B00000F036FE044BDB6818460DF02DFF00BF1F
:1025C0000837BD4680BD00BF5C020020B81A010874
:1025D000BC1A0108C41B01084C1D010880B582B05B
:1025E00000AF78607B681B68344A934229D1344B32
:1025F0001B68002B5BD1334B1B780A2B12D1324B5B
:102600001B68324A0021D1542F4B00221A603049F6
:102610002E480EF0CFF80346002B0CD0284B012299
:102620001A6047E0284B1B685A1C27490A60254A54
:102630001178264AD15401222249264809F0B1F8DE
:1026400038E07B681B68244A934233D1234B1B68D4
:10265000002B2ED1224B1B780A2B12D1214B1B6849
:10266000214A0021D1541F4B00221A601F491E48E5
:102670000EF0A0F80346002B13D0184B01221A606D
:1026800018E0184B1B68322B02D1164B00221A603F
:10269000144B1B685A1C13490A60114A1178124ADC
:1026A000D15401220E49124809F07BF802E000BF24
:1026B00000E000BF0837BD4680BD00BF00140140E8
:1026C00058130120DC12012094140120E012012093
:1026D000681D0108BC170120004800409413012028
:1026E0005C1301209814012060130120701D010863
:1026F0007817012090B589B000AF104B07F1100496
:102700000FCB07C423800E4B3C460FCB84E80F0051
:1027100007F1100132230E220A4808F0B0FF3946B3
:1027200032231022074808F0AAFF01220649054873
:1027300009F037F800BF2437BD4690BD781D010869
:10274000881D0108BC170120DC12012080B59CB057
:1027500000AF5B4B1B68002B00F0AE802C2159486A
:102760000EF008F8F8660023BB6642E0FB6E01330A
:102770002C2118460DF0FEFF0246FB6ED31A013BDA
:102780003B663B6E002B07D1BB6E9B0070333B4416
:10279000002243F86C2C22E03B6E013318460DF00A
:1027A00033FE03461A46BB6E9B0070333B4443F82E
:1027B0006C2CBB6E9B0070333B4453F86C0CFB6E6F
:1027C00001333A6E19460DF0E2FFBB6E9B00703389
:1027D0003B4453F86C2C3B6E134400221A70BB6EC2
:1027E0000133BB66FB6E01332C2118460DF0C2FF8E
:1027F000F866FB6E01332C2118460DF0BBFF034633
:10280000002BB3D12E4B1B689B0070333B4453F815
:102810006C3C1B78412B21D12B4B1B68002B0FD11B
:102820002A4B3B642A4B7B642A4BBB642A4BFB64D8
:1028300007F140031846FFF76DF8234B01221A6099
:10284000224B3B65224B7B65244BBB651D4BFB65D7
:1028500007F150031846FFF75DF813E01A4B1B68A9
:10286000002B0FD0194B3B63194B7B63194BBB6398
:102870001B4BFB6307F130031846FFF74BF8124B75
:1028800000221A6000237B660BE07B6E9B00703396
:102890003B4453F86C3C18460DF0BEFD7B6E013393
:1028A0007B667B6E0A2BF0DD054B00221A6001224D
:1028B0000C490D4808F075FF00BF7037BD4680BD5C
:1028C00058130120E0120120D0120020B81A01088C
:1028D000DC1A0108981D0108A41D0108A81D0108A3
:1028E000B01D0108DC120120BC17012080B59CB08E
:1028F00000AFA24B1B68002B00F0FB80A049A14851
:102900000DF07AFEA0499E480DF054FF0346002BBF
:1029100012D09E4BFB649E4B3B659E4B7B65984B58
:10292000BB6507F14C031846FEF7F4FF01F048FCC5
:102930000346994A1360D4E0984991480DF03AFF54
:102940000346002B14D0944B1B68002B0CD08F4BEC
:10295000FB638F4B3B648F4B7B64894BBB6407F1FC
:102960003C031846FEF7D6FF8B4B00221A60B8E0F6
:10297000864BFB62864B3B63864B7B63804BBB6322
:1029800007F12C031846FEF7C5FF85497C480DF07A
:1029900011FF0346002B00F09880814978480DF024
:1029A00009FF03460A33FB660023BB66FB6E1B78F8
:1029B000002B00F0968066E007F128030322F96EF1
:1029C00018460DF0E4FE002387F82A30BB6E052B75
:1029D00053D801A252F823F0F1290008092A00086F
:1029E000212A0008392A00084F2A0008652A000811
:1029F00007F128030A22002118460DF073FF034651
:102A0000DBB287F8273038E007F1280310220021D5
:102A100018460DF067FF0346DBB287F825302CE03F
:102A200007F128030A22002118460DF05BFF034638
:102A3000DBB287F8263020E007F128030A220021C4
:102A400018460DF04FFF0346DBB23B7415E007F16B
:102A500028030A22002118460DF044FF0346DBB28A
:102A60007B740AE007F128030A22002118460DF0C2
:102A700039FF0346DBB2BB7400BFFB6E0333FB665A
:102A8000BB6E0133BB66FB6E1B78002B94D1002319
:102A900087F8243007F1100300221946414806F058
:102AA00005FB07F12403002219463E4806F0F6FB19
:102AB000364B3B60364B7B603B4BBB603B4BFB601C
:102AC0003B461846FEF726FF0BE039492C480DF02F
:102AD00071FE0346002B04D001F072FB03462E4A20
:102AE0001360264B00221A6001223249324808F056
:102AF00058FE01F065FB7866274B1B68002B38D029
:102B0000254B1B6803F59C5308337A6E9A4230D9E3
:102B10002A4800F0BBFB0346002B2AD1284B1B6838
:102B200032337A6E9A4224D9244B03F580331B68E2
:102B3000224A13441846FDF74BFB034601333B661C
:102B4000386E0DF061FC0346FB653A6EF96D1B486B
:102B500000F050FC3B6E9AB23223F96D164808F033
:102B60008EFDF86D0DF058FC01F02AFB0346144A67
:102B7000136000BF7037BD4680BD00BF94130120B5
:102B800060130120B41D0108C01D0108B81A010816
:102B9000DC1A0108D41D01089C140120DC1D010869
:102BA000F01D0108AC140120F81D0108FC1D0108EE
:102BB000141E01085C13012078170120D412002094
:102BC000A014012080B582B000AF78607B681B68DC
:102BD000B3F1804F11D1194B1B68002B09D0012292
:102BE0004FF40041164803F01FFC164808F00AF99C
:102BF00020E0124B01221A601CE07B681B68124A1D
:102C0000934203D1114B01221A6013E07B681B68C9
:102C10000F4A934206D10F4801F046FB0E4B0122AA
:102C20001A6007E07B681B680C4A934202D10C4B88
:102C300001221A700837BD4680BD00BFA4140120D0
:102C4000000002401416012000040040A4130120DB
:102C50000008004044010020A0130120001800409B
:102C60007C140120B0B582B000AF7860214801F03B
:102C700009FD0346204A12889B1A1846FDF742FCBC
:102C80004FF000021D4BFDF7B7FC02460B46144601
:102C90001D461B4B1B881A46174B1B88D31A184618
:102CA000FDF740FC02460B4620462946FDF7CEFDC7
:102CB00002460B46104619464FF00002114BFDF735
:102CC000E5FA02460B46104619464FF000020E4B3D
:102CD000FDF792FC02460B4610461946FDF7C6FE6C
:102CE00003460A4A13600A4B01221A6000BF0837E4
:102CF000BD46B0BD440100202C7AFF1F00005440A7
:102D00002E7AFF1F00003E40000024409C1301204B
:102D10009813012080B586B002AF0346FB71FB79A2
:102D200023F00F03FB73FB791B01BB73FB7B43F0A9
:102D30000C03DBB23B72FB7B43F00803DBB27B721C
:102D4000BB7B43F00C03DBB2BB72BB7B43F00803DD
:102D5000DBB2FB7207F108023223009304234E21F9
:102D6000034803F0BFFC00BF1037BD4680BD00BF65
:102D70000802002080B586B002AF0346FB71FB79E4
:102D800023F00F03FB73FB791B01BB73FB7B43F049
:102D90000D03DBB23B72FB7B43F00903DBB27B72BA
:102DA000BB7B43F00D03DBB2BB72BB7B43F009037B
:102DB000DBB2FB7207F108023223009304234E2199
:102DC000034803F08FFC00BF1037BD4680BD00BF35
:102DD0000802002080B582B000AF78600B46FB701F
:102DE0001346BB70BB78002B02D0012B05D009E045
:102DF000FB7863F07F03FB7004E0FB7863F03F0334
:102E0000FB7000BFFB781846FFF784FF06E07B6885
:102E10005A1C7A601B781846FFF7ACFF7B681B785A
:102E2000002BF4D100BF00BF0837BD4680BD0000B5
:102E300080B500AF0A2001F0CFF93020FFF76AFF1C
:102E4000052001F0C9F93020FFF764FF012001F0EF
:102E5000C3F93020FFF75EFF2020FFF75BFF012062
:102E600001F0BAF92820FFF755FF0820FFF752FFBD
:102E70000120FFF74FFF022001F0AEF90C20FFF711
:102E800049FF00220C210648FFF7A4FF01220C2174
:102E90000448FFF79FFF044807F044FF00BF80BDD0
:102EA0001C1E0108201E01085C16012080B586B09A
:102EB00000AF2C4B1B68002B4FD02B4B1B680533EE
:102EC0002A4AA2FB0323DB08FB603B46FA68284939
:102ED00018460DF02FFC3B4601220E211846FFF745
:102EE00079FFFB68233BBB60224B1B68BA68D31A8F
:102EF0007B617B69002B02DDFF23FB7404E0202350
:102F0000FB747B695B427B617B69013318460DF082
:102F10007BFA03467B60FB7C7A69194678680DF082
:102F200083FA7B697A68134400221A70FB7CFF2BBA
:102F300003D1104B1B68DBB201E0BB68DBB201229E
:102F400019467868FFF746FF0A4ABB68136078683D
:102F50000DF062FA034B00221A6000BF1837BD461D
:102F600080BD00BFA41301209C130120CDCCCCCC8C
:102F7000C01B0108A8140120F0B589B004AF01F00E
:102F8000B9F800F0DFF8FEF753F9FEF729F900F081
:102F90009FFD00F041FFFEF717FA00F0E9FA00F09C
:102FA00053FA0AF00BF900F08BFF00F05FFFFEF719
:102FB0000DF800F029FEFEF7D9F900F0D7FD00F07A
:102FC00071FEFEF77DF8FEF7CDFA02460B46524938
:102FD000C1E90023504BD3E900014FF000024FF04C
:102FE00000030A0C002394464B4BD3E900014FF039
:102FF00000024FF000030B0443EA104302044FF0B9
:1030000000004FF00001180E00218646424BD3E924
:1030100000014FF000024FF000030B0643EA1023BB
:1030200002064FF000004FF00001180E0021044688
:10303000394BD3E900014FF000024FF000030300C9
:1030400000224FF000004FF00001180E002105464D
:10305000314BD3E900014FF000024FF000030302AF
:1030600000224FF000004FF00001180E002106462C
:10307000294BD3E900014FF000024FF00003030495
:1030800000224FF000004FF00001180E002103460F
:103090000393029601950094734662461F492048A7
:1030A0000DF048FB1F4800F023F9002240211E4884
:1030B00003F0BAF9012280211B4803F0B5F91B4B3C
:1030C0003B601B4B7B601B4BBB601A4BFB603B4662
:1030D0001846FEF71FFCFFF7ABFE01221649174802
:1030E00008F05FFB0A230A221549144808F0C7FAC2
:1030F000FEF72CFDFEF740FFFFF7FCFAFEF7B8FEE7
:10310000FEF798FDFFF770F9FFF720FBFFF7EEFBE6
:10311000FFF7CCFEF2E700BFA8120020541E010802
:10312000B0120020D412002000000240B81A01089A
:10313000DC1A01087C1E01085C13012078170120AD
:10314000841E010880B594B000AF07F1200330223F
:10315000002118460DF068F907F10C0300221A60EF
:103160005A609A60DA601A610023BB602A4B1B6CBC
:10317000294A43F080531364274B1B6C03F08053A0
:10318000BB60BB6800237B60244B1B68234A43F46D
:1031900080431360214B1B6803F480437B607B6892
:1031A00005233B624FF480337B620123BB62022321
:1031B000BB634FF48003FB6304233B64A8237B645D
:1031C0000223BB640723FB6407F12003184605F0C4
:1031D00055F90346002B01D000F022F80F23FB60C5
:1031E00002233B6100237B614FF4A053BB614FF48A
:1031F0008053FB6107F10C030521184605F0B6FB6F
:103200000346002B01D000F00BF805F095FC00BF41
:103210005037BD4680BD00BF0038024000700040FE
:1032200080B582B000AF01224021144803F0FCF8C1
:1032300000228021114803F0F7F864200DF0E4F833
:1032400003467B603B461A4679680D48FEF7B4FAA0
:103250003B6801331A4679680A4800F08AF87868B2
:103260000DF0DAF8064BDB68194607480DF0C4F993
:1032700000BF00BF0837BD4680BD00BF0000024050
:103280005C020020D4120020901E010880B483B09C
:1032900000AF78607B6803F580335A687B6803F57C
:1032A00080331B689A420CBF01230023DBB218460F
:1032B0000C37BD465DF8047B704780B483B000AF27
:1032C00078607B6803F580335A687B6803F5803348
:1032D0001B68D31A9BB24FF6FF7293420CBF0123B7
:1032E0000023DBB218460C37BD465DF8047B7047FF
:1032F00080B483B000AF78607B6803F580331A46F2
:10330000002313607B6803F580331A460023536063
:1033100000BF0C37BD465DF8047B704780B582B0B6
:1033200000AF78600B46FB707868FFF7C6FF034676
:10333000002B09D07B6803F580331B6801339BB2F7
:103340007A6802F5803213607B6803F580335B682E
:103350007A68F978D1547B6803F580335B68013370
:103360009BB27A6802F58032536000BF0837BD46D1
:1033700080BD80B586B000AFF860B9607A60002388
:103380007B610AE0BA687B6913441B781946F868C8
:10339000FFF7C4FF7B6901337B617A697B689A42DE
:1033A000F0D300BF00BF1837BD4680BD80B582B0E6
:1033B00000AF786039607868FFF768FF0346002B3C
:1033C00001D0002312E07B6803F580331B687A6824
:1033D000D25C3B681A707B6803F580331B6801334D
:1033E0009BB27A6802F580321360012318460837D1
:1033F000BD4680BD80B586B000AFF860B9607A6028
:10340000F868FFF743FF0346002B01D0002316E0C6
:10341000BB687B6100233B6105E03B6901333B6195
:103420007B6901337B613A697B689A4206D279698C
:10343000F868FFF7BBFF0346002BEED13B69184647
:103440001837BD4680BD000080B586B000AF3B1D7B
:1034500000221A605A609A60DA601A6100233B60A9
:103460002C4B2D4A1A602B4B00225A60294B7F228D
:103470009A60284BFF22DA60264B00221A61254B06
:1034800000225A61234B00229A61224805F098FDE0
:103490000346002B01D0FFF7C3FE00211D4806F0B4
:1034A000A7F803464CF6FE2293422ED04CF6FE229D
:1034B0000021184806F082F801233B7102237B713A
:1034C0000323BB7100233B6100237B613B1D012271
:1034D0001946104805F0EAFD0346002B01D0FFF71E
:1034E0009FFE05233B7007237B701523BB702223AF
:1034F000FB703B4601221946064805F0CFFE034605
:10350000002B03D0FFF78CFE00E000BF1837BD464C
:1035100080BD00BFAC1401200028004080B586B0FB
:1035200000AF786007F1080300221A605A609A60C1
:10353000DA607B681B680C4A934211D10223BB609E
:103540004FF480737B6107F10803184605F056FCC1
:103550000346002B01D0FFF763FE044B01221A60E3
:1035600000BF1837BD4680BD002800403C0E4742D2
:1035700080B400AF0D4B0E4A1A600C4B00225A600B
:103580000A4B00229A60094B0022DA60074B0022A6
:103590001A61064B4FF480425A61044B0C229A6127
:1035A00000BFBD465DF8047B704700BFCC1401200E
:1035B000002C014080B58AB000AF786007F1140399
:1035C00000221A605A609A60DA601A617B681B6890
:1035D000704A934240F0DA8000233B616E4B5B6C93
:1035E0006D4A43F4006353646B4B5B6C03F40063FC
:1035F0003B613B690023FB60674B1B6B664A43F0F2
:1036000004031363644B1B6B03F00403FB60FB6850
:103610000023BB60604B1B6B5F4A43F008031363DE
:103620005D4B1B6B03F00803BB60BB684FF470631A
:103630007B610223BB610123FB6103233B620C23FB
:103640007B6207F114031946544802F039FD4FF428
:1036500080537B610223BB610023FB6103233B6238
:103660000C237B6207F1140319464C4802F028FD35
:1036700004237B610223BB610123FB6103233B62C3
:103680000C237B6207F114031946454802F018FD2C
:10369000444B454A1A60434B4FF000625A60414B1D
:1036A00000229A603F4B0022DA603E4B4FF480626A
:1036B0001A613C4B4FF480525A613A4B4FF48042AE
:1036C0009A61384B2022DA61364B00221A62354B60
:1036D00004225A62334B03229A62324B4FF40002A7
:1036E000DA62304B4FF400121A632E4802F0CCF825
:1036F0000346002B01D0FFF793FD7B68294A1A642B
:10370000284A7B689363294B294A1A60274B4FF05C
:1037100000625A60254B40229A60244B0022DA60F6
:10372000224B4FF480621A61204B4FF480525A6151
:103730001E4B4FF480429A611C4B2022DA611B4BD6
:1037400000221A62194B04225A62184B03229A6211
:10375000164B4FF40002DA62144B4FF400121A6356
:10376000124802F091F80346002B01D0FFF758FDF4
:103770007B680E4ADA630D4A7B689363002200215E
:10378000312002F03EF8312002F057F800BF283710
:10379000BD4680BD002C01400038024000080240B8
:1037A000000C02405015012058640240B015012061
:1037B000A064024080B483B000AF00237B60104B54
:1037C0005B6C0F4A43F4804353640D4B5B6C03F412
:1037D00080437B607B6800233B60094B1B6C084A7D
:1037E00043F080531364064B1B6C03F080533B6023
:1037F0003B6800BF0C37BD465DF8047B704700BFD7
:103800000038024080B500AF05F0DCFAFEE70000AA
:1038100080B500AF01224021054802F005FE0122DB
:103820008021034802F000FE02480CF06BFFFEE727
:10383000000002409C1E010880B400AFFEE780B487
:1038400000AFFEE780B400AFFEE780B400AF00BF7A
:10385000BD465DF8047B704780B400AF00BFBD4635
:103860005DF8047B704780B400AF00BFBD465DF8D3
:10387000047B704780B500AF00F08EFC01F0F7FFCD
:1038800000BF80BD80B500AF024800F0EBFD00BF77
:1038900080BD00BF4401002080B500AF024801F0A8
:1038A000BAFC00BF80BD00BF8C01002080B500AF16
:1038B000024801F0B0FC00BF80BD00BF8C010020B9
:1038C00080B500AF024807F0CCFA00BF80BD00BF52
:1038D0001416012080B500AF024807F0C2FA00BFFD
:1038E00080BD00BF5C16012080B500AF024807F024
:1038F000B8FA00BF80BD00BFA416012080B500AF9C
:10390000024802F0EDFF00BF80BD00BFB4010020FF
:1039100080B500AF024802F0E3FF00BF80BD00BFEA
:103920000802002080B500AF024807F06BFF00BF1F
:1039300080BD00BF7817012080B500AF024807F0B6
:1039400090FA00BF80BD00BFEC16012080B500AF2B
:10395000024806F0DDF800BF80BD00BFCC14012096
:1039600080B500AF024802F027F900BF80BD00BF5C
:103970005015012080B500AF024802F01DF900BFCC
:1039800080BD00BFB015012080B500AF024807F030
:1039900039FF00BF80BD00BFBC17012080B586B0D5
:1039A00000AFF860B9607A6000237B610AE0AFF392
:1039B00000800146BB685A1CBA60CAB21A707B69A3
:1039C00001337B617A697B689A42F0DB7B68184639
:1039D0001837BD4680BD80B483B000AF78604FF02B
:1039E000FF3318460C37BD465DF8047B704780B442
:1039F00083B000AF786039603B684FF400525A6082
:103A0000002318460C37BD465DF8047B704780B430
:103A100083B000AF7860012318460C37BD465DF8CF
:103A2000047B704780B485B000AFF860B9607A60FD
:103A3000002318461437BD465DF8047B704700002C
:103A400080B586B000AF7860144A154BD31A7B61FD
:103A50007B693B61134B1B68002B02D1114B124A4F
:103A60001A60104B1A687B6813443A699A4207D26D
:103A70000CF0A0FC03460C221A604FF0FF3309E063
:103A8000084B1B68FB60074B1A687B681344054AA8
:103A90001360FB6818461837BD4680BD0000022041
:103AA0000004000010160120501A012080B400AF5D
:103AB000064BD3F88830054A43F47003C2F88830C7
:103AC00000BFBD465DF8047B704700BF00ED00E01D
:103AD00080B586B000AF07F1080300221A605A6073
:103AE0009A60DA603B4600221A605A601E4B4FF023
:103AF00080421A601C4B42F2CF025A601A4B0022DD
:103B00009A60194B40F2CF72DA60174B00221A61AB
:103B1000154B00229A61144807F0B5F80346002BB4
:103B200001D0FFF77DFB4FF48053BB6007F1080322
:103B300019460D4807F09DFA0346002B01D0FFF708
:103B40006FFB00233B6000237B603B461946064821
:103B500007F0B8FC0346002B01D0FFF761FB00BF64
:103B60001837BD4680BD00BF1416012080B586B051
:103B700000AF07F1080300221A605A609A60DA6009
:103B80003B4600221A605A601D4B1E4A1A601C4BAD
:103B900042F2CF025A601A4B00229A60184B40F250
:103BA000E732DA60164B00221A61154B00229A6147
:103BB000134807F068F80346002B01D0FFF730FBED
:103BC0004FF48053BB6007F1080319460C4807F017
:103BD00050FA0346002B01D0FFF722FB00233B6085
:103BE00000237B603B461946054807F06BFC034603
:103BF000002B01D0FFF714FB00BF1837BD4680BD76
:103C00005C1601200004004080B586B000AF07F1CB
:103C1000080300221A605A609A60DA603B4600226C
:103C20001A605A601D4B1E4A1A601C4B42F2CF02AA
:103C30005A601A4B00229A60184B4CF24F32DA60ED
:103C4000164B00221A61154B00229A61134807F0A7
:103C50001AF80346002B01D0FFF7E2FA4FF4805325
:103C6000BB6007F1080319460C4807F002FA034647
:103C7000002B01D0FFF7D4FA00233B6000237B60C8
:103C80003B461946054807F01DFC0346002B01D0B2
:103C9000FFF7C6FA00BF1837BD4680BDA416012045
:103CA0000008004080B584B000AF3B4600221A6097
:103CB0005A609A60DA60164B164A1A60144B42F248
:103CC000CF025A60124B00229A60114B40F2CF7221
:103CD000DA600F4B00221A610D4B00229A610C48EA
:103CE00006F0D1FF0346002B01D0FFF799FA4FF4FD
:103CF00080533B603B461946054807F0BAF9034636
:103D0000002B01D0FFF78CFA00BF1037BD4680BDF5
:103D1000EC1601200018004080B586B000AF786036
:103D20007B681B68B3F1804F16D100237B61364B53
:103D30001B6C354A43F001031364334B1B6C03F0D7
:103D400001037B617B69002200211C2001F059FDE9
:103D50001C2001F072FD52E07B681B682B4A9342E5
:103D600016D100233B61284B1B6C274A43F002030A
:103D70001364254B1B6C03F002033B613B6900227B
:103D800000211D2001F03DFD1D2001F056FD36E013
:103D90007B681B681E4A934216D10023FB601A4BB6
:103DA0001B6C194A43F004031364174B1B6C03F09C
:103DB0000403FB60FB68002200211E2001F021FDAE
:103DC0001E2001F03AFD1AE07B681B68114A9342FD
:103DD00015D10023BB600C4B1B6C0B4A43F0400316
:103DE0001364094B1B6C03F04003BB60BB680022EB
:103DF00000212B2001F005FD2B2001F01EFD00BF4E
:103E00001837BD4680BD00BF0038024000040040A6
:103E1000000800400018004080B500AF114B124A66
:103E20001A60104B4FF4E1325A600E4B00229A6038
:103E30000C4B0022DA600B4B00221A61094B0C225A
:103E40005A61084B00229A61064B0022DA6105484C
:103E500007F0C8FB0346002B01D0FFF7E1F900BFD4
:103E600080BD00BF341701200010014080B500AFB5
:103E7000104B114A1A600F4B104A5A600D4B00222A
:103E80009A600C4B0022DA600A4B00221A61094B3F
:103E90000C225A61074B00229A61064B0022DA611C
:103EA000044807F09FFB0346002B01D0FFF7B8F949
:103EB00000BF80BD78170120004800408024010029
:103EC00080B500AF114B124A1A60104B4FF41652D6
:103ED0005A600E4B00229A600C4B0022DA600B4BAA
:103EE00000221A61094B0C225A61084B00229A6188
:103EF000064B0022DA61054807F074FB0346002BED
:103F000001D0FFF78DF900BF80BD00BFBC170120B5
:103F10000014014080B58EB000AF786007F1240333
:103F200000221A605A609A60DA601A617B681B6826
:103F3000544A93422DD100233B62534B5B6C524A4F
:103F400043F010035364504B5B6C03F010033B626F
:103F50003B6A0023FB614C4B1B6B4B4A43F0010354
:103F60001363494B1B6B03F00103FB61FB694FF4C7
:103F7000C0637B620223BB620023FB6203233B63BB
:103F800007237B6307F124031946404802F098F8A1
:103F900073E07B681B683E4A934235D10023BB61C6
:103FA000394B1B6C384A43F480231364364B1B6C2B
:103FB00003F48023BB61BB6900237B61324B1B6B25
:103FC000314A43F0080313632F4B1B6B03F00803C4
:103FD0007B617B694FF440737B620223BB620023E9
:103FE000FB6203233B6307237B6307F1240319462A
:103FF000284802F065F800220021272001F001FC8A
:10400000272001F01AFC38E07B681B68224A9342A3
:1040100033D100233B611C4B5B6C1B4A43F02003F4
:104020005364194B5B6C03F020033B613B69002335
:10403000FB60154B1B6B144A43F004031363124BD4
:104040001B6B03F00403FB60FB68C0237B6202234D
:10405000BB620023FB6203233B6308237B6307F1FE
:10406000240319460D4802F02BF8002200214720B6
:1040700001F0C7FB472001F0E0FB00BF3837BD4629
:1040800080BD00BF00100140003802400000024027
:1040900000480040000C02400014014000080240AB
:1040A000DFF834D00D480E490E4A002302E0D45800
:1040B000C4500433C4188C42F9D30B4A0B4C002370
:1040C00001E013600432A242FBD3FFF7EFFC0CF0D7
:1040D00077F9FEF751FF7047000002200000002032
:1040E000280100201C25010828010020501A012069
:1040F000FEE7000080B500AF0E4B1B680D4A43F48D
:10410000007313600B4B1B680A4A43F4806313600F
:10411000084B1B68074A43F480731360032001F0C7
:1041200065FB002000F008F8FFF744FB0023184669
:1041300080BD00BF003C024080B582B000AF786017
:10414000124B1A68124B1B7819464FF47A73B3FB63
:10415000F1F3B2FBF3F3184601F07DFB0346002BAD
:1041600001D001230EE07B680F2B0AD8002279686A
:104170004FF0FF3001F045FB064A7B6813600023D7
:1041800000E0012318460837BD4680BDB800002076
:10419000C0000020BC00002080B400AF064B1B789C
:1041A0001A46064B1B681344044A136000BFBD4601
:1041B0005DF8047B704700BFC0000020001801209C
:1041C00080B400AF034B1B681846BD465DF8047B06
:1041D000704700BF0018012080B584B000AF786040
:1041E000FFF7EEFFB8607B68FB60FB68B3F1FF3F51
:1041F00005D00A4B1B781A46FB681344FB6000BFCE
:10420000FFF7DEFF0246BB68D31AFA689A42F7D876
:1042100000BF00BF1037BD4680BD00BFC0000020FA
:1042200080B584B000AF78600023FB737B68002BFF
:1042300001D1012333E07B681B6C002B09D1786826
:10424000FCF716FF7B6800225A647B68002283F823
:104250003C207B681B6C03F01003002B18D17B689B
:104260001B6C23F4885323F0020343F002027B68A3
:104270001A64786800F04AFB7B6800225A647B6805
:104280001B6C23F0030343F001027B681A6401E016
:104290000123FB737B68002283F83C20FB7B1846DC
:1042A0001037BD4680BD000080B485B000AF786097
:1042B0000023BB607B6893F83C30012B01D10223C3
:1042C000BDE07B68012283F83C207B681B689B680B
:1042D00003F00103012B18D07B681B689A687B6888
:1042E0001B6842F001029A60584B1B68584AA2FBB7
:1042F00003239A0C13465B001344BB6002E0BB68C7
:10430000013BBB60BB68002BF9D17B681B689B68D5
:1043100003F00103012B40F085807B681B6C23F4C4
:10432000E06323F0010343F480727B681A647B68C6
:104330001B685B6803F48063002B07D07B681B6CF1
:1043400023F4405343F480527B681A647B681B6CEF
:1043500003F48053B3F5805F06D17B685B6C23F078
:1043600006027B685A6402E07B6800225A647B681C
:10437000002283F83C20374BFB607B681B686FF0A2
:1043800022021A607B681B685B687A68126843F0D7
:10439000806343F020035360FB685B6803F01F03F6
:1043A000002B2AD17B681B682B4A934215D07B686F
:1043B0001B682A4A934205D1264B5B6803F01F0312
:1043C000002B0AD07B681B68254A934236D1214BCB
:1043D0005B6803F01003002B30D17B681B689B687F
:1043E00003F04053002B29D17B681B689A687B68D7
:1043F0001B6842F080429A6020E07B681B68164A86
:1044000093421BD17B681B689B6803F04053002BD1
:1044100014D17B681B689A687B681B6842F08042F5
:104420009A600BE07B681B6C43F010027B681A6497
:104430007B685B6C43F001027B685A64002318467A
:104440001437BD465DF8047B704700BFB8000020FC
:1044500083DE1B4300230140002001400021014076
:104460000022014080B586B000AF786000237B61F8
:1044700000233B617B681B681B68FB607B681B68D3
:104480005B68BB60FB6803F002037B61BB6803F001
:1044900020033B617B69002B49D03B69002B46D050
:1044A0007B681B6C03F01003002B05D17B681B6C31
:1044B00043F400727B681A647B681B689B6803F096
:1044C0004053002B2BD17B681B7E002B27D17B68B0
:1044D0001B68DB6A03F47003002B06D07B681B6843
:1044E0009B6803F48063002B19D17B681B685A68B2
:1044F0007B681B6822F020025A607B681B6C23F4E7
:1045000080727B681A647B681B6C03F48053002BF9
:1045100005D17B681B6C43F001027B681A647868E4
:10452000FEF7A0FB7B681B686FF012021A60FB6845
:1045300003F004037B61BB6803F080033B617B698C
:10454000002B57D03B69002B54D07B681B6C03F0C9
:104550001003002B05D17B681B6C43F400527B6871
:104560001A647B681B689B6803F44013002B39D1E5
:104570007B681B689B6B03F44013002B06D07B68A1
:104580001B689B6803F48063002B2BD17B681B683E
:104590005B6803F48063002B24D17B681B689B68F5
:1045A00003F04053002B1DD17B681B7E002B19D1DB
:1045B0007B681B685A687B681B6822F080025A601F
:1045C0007B681B6C23F480527B681A647B681B6CCD
:1045D00003F48073002B05D17B681B6C43F0010250
:1045E0007B681A64786800F08DFA7B681B686FF04E
:1045F0000C021A60FB6803F001037B61BB6803F0E7
:1046000040033B617B69002B17D03B69002B14D022
:104610007B681B681B6803F00103012B0DD17B68CD
:104620001B6C43F480327B681A64786800F037F8BA
:104630007B681B686FF001021A60FB6803F02003BF
:104640007B61BB6803F080633B617B69002B15D005
:104650003B69002B12D07B685B6C43F002027B68E5
:104660005A647B681B686FF020021A60786800F05B
:1046700020F87B681B686FF020021A6000BF1837B3
:10468000BD4680BD80B483B000AF78607B681B6896
:10469000DB6C18460C37BD465DF8047B704780B470
:1046A00083B000AF786000BF0C37BD465DF8047B77
:1046B000704780B483B000AF786000BF0C37BD4650
:1046C0005DF8047B7047000080B485B000AF78606F
:1046D00039600023BB607B6893F83C30012B01D12B
:1046E000022305E17B68012283F83C203B681B68BC
:1046F000092B25D97B681B68D9683B681B689BB26E
:104700001A4613465B0013441E3B072202FA03F3CA
:10471000DA437B681B680A40DA607B681B68D968EB
:104720003B689A683B681B689BB2184603465B006F
:1047300003441E3B9A407B681B680A43DA6022E010
:104740007B681B6819693B681B689BB21A46134655
:104750005B001344072202FA03F3DA437B681B6809
:104760000A401A617B681B6819693B689A683B6854
:104770001B689BB2184603465B0003449A407B6863
:104780001B680A431A613B685B68062B24D87B6868
:104790001B68596B3B685A6813469B001344053BE2
:1047A0001F2202FA03F3DA437B681B680A405A634C
:1047B0007B681B68596B3B681B689BB218463B685B
:1047C0005A6813469B001344053B00FA03F27B68CA
:1047D0001B680A435A634CE03B685B680C2B24D887
:1047E0007B681B68196B3B685A6813469B0013442F
:1047F000233B1F2202FA03F3DA437B681B680A405B
:104800001A637B681B68196B3B681B689BB2184670
:104810003B685A6813469B001344233B00FA03F29B
:104820007B681B680A431A6323E07B681B68D96AAC
:104830003B685A6813469B001344413B1F2202FA0F
:1048400003F3DA437B681B680A40DA627B681B6803
:10485000D96A3B681B689BB218463B685A68134686
:104860009B001344413B00FA03F27B681B680A4338
:10487000DA62224BFB607B681B68214A934209D1B4
:104880003B681B68122B05D1FB685B6843F4800210
:10489000FB685A607B681B68194A934223D13B68C6
:1048A0001B68102B03D03B681B68112B1BD1FB68C6
:1048B0005B6843F40002FB685A603B681B68102B7E
:1048C00011D1104B1B68104AA2FB03239A0C13460C
:1048D0009B0013445B00BB6002E0BB68013BBB6014
:1048E000BB68002BF9D17B68002283F83C200023B1
:1048F00018461437BD465DF8047B7047002301401D
:1049000000200140B800002083DE1B4380B485B046
:1049100000AF7860794BFB60FB685B6823F4403242
:10492000FB685A60FB685A687B685B681A43FB68DF
:104930005A607B681B685A687B681B6822F4807227
:104940005A607B681B6859687B681B691A027B6820
:104950001B680A435A607B681B685A687B681B683F
:1049600022F040725A607B681B6859687B689A68BD
:104970007B681B680A435A607B681B689A687B687F
:104980001B6822F400629A607B681B6899687B68E8
:10499000DA687B681B680A439A607B689B6A584A9E
:1049A000934222D07B681B689A687B681B6822F060
:1049B00070629A607B681B6899687B689A6A7B68FA
:1049C0001B680A439A607B681B689A687B681B684F
:1049D00022F040529A607B681B6899687B68DA6AAB
:1049E0007B681B680A439A600FE07B681B689A68C3
:1049F0007B681B6822F070629A607B681B689A680B
:104A00007B681B6822F040529A607B681B689A683A
:104A10007B681B6822F002029A607B681B689968B9
:104A20007B681B7E5A007B681B680A439A607B6820
:104A300093F82030002B1BD07B681B685A687B687A
:104A40001B6842F400625A607B681B685A687B6886
:104A50001B6822F460425A607B681B6859687B6857
:104A60005B6A013B5A037B681B680A435A6007E094
:104A70007B681B685A687B681B6822F400625A6076
:104A80007B681B68DA6A7B681B6822F47002DA6252
:104A90007B681B68D96A7B68DB69013B1A057B6808
:104AA0001B680A43DA627B681B689A687B681B682C
:104AB00022F400729A607B681B6899687B6893F89F
:104AC00030305A027B681B680A439A607B681B6817
:104AD0009A687B681B6822F480629A607B681B6816
:104AE00099687B685B699A027B681B680A439A60D5
:104AF00000BF1437BD465DF8047B704700230140BA
:104B00000100000F80B483B000AF786000BF0C37A5
:104B1000BD465DF8047B704780B584B000AF786017
:104B20007B68002B01D10123EDE07B6893F82030F6
:104B3000DBB2002B02D17868FCF7FAFA7B681B68BD
:104B40001A687B681B6842F001021A60FFF738FBA5
:104B5000F86012E0FFF734FB0246FB68D31A0A2B19
:104B60000BD97B685B6A43F400327B685A627B68CE
:104B7000052283F820200123C5E07B681B685B6861
:104B800003F00103002BE5D07B681B681A687B6883
:104B90001B6822F002021A60FFF712FBF86012E0B5
:104BA000FFF70EFB0246FB68D31A0A2B0BD97B6872
:104BB0005B6A43F400327B685A627B68052283F8A3
:104BC000202001239FE07B681B685B6803F00203E1
:104BD000002BE5D17B681B7E012B08D17B681B680D
:104BE0001A687B681B6842F080021A6007E07B68E5
:104BF0001B681A687B681B6822F080021A607B6859
:104C00005B7E012B08D17B681B681A687B681B6878
:104C100042F040021A6007E07B681B681A687B68F4
:104C20001B6822F040021A607B689B7E012B08D132
:104C30007B681B681A687B681B6842F020021A6058
:104C400007E07B681B681A687B681B6822F02002FB
:104C50001A607B68DB7E012B08D17B681B681A68B1
:104C60007B681B6822F010021A6007E07B681B68F3
:104C70001A687B681B6842F010021A607B681B7F11
:104C8000012B08D17B681B681A687B681B6842F09F
:104C900008021A6007E07B681B681A687B681B685B
:104CA00022F008021A607B685B7F012B08D17B68C9
:104CB0001B681A687B681B6842F004021A6007E0F0
:104CC0007B681B681A687B681B6822F004021A6004
:104CD0007B689A687B68DB681A437B681B691A43A8
:104CE0007B685B6942EA03017B685B685A1E7B68EC
:104CF0001B680A43DA617B6800225A627B680122E2
:104D000083F82020002318461037BD4680BD0000E0
:104D100080B487B000AF786039607B681B687B61C6
:104D20007B6893F82030FB74FB7C012B03D0FB7C69
:104D3000022B40F0BE80654B7B617B69D3F800326B
:104D400043F001027B69C3F800227B69D3F800328B
:104D500023F47C527B69C3F800227B69D3F80022DC
:104D60003B685B6A1B021A437B69C3F800223B68FD
:104D70005B6903F01F03012202FA03F3FB607B6906
:104D8000D3F81C22FB68DB431A407B69C3F81C2262
:104D90003B68DB69002B23D17B69D3F80C22FB68CD
:104DA000DB431A407B69C3F80C223B68DB681904BB
:104DB0003B685B689BB23A68526919437B69483229
:104DC00043F832103B689B6819043B681B689AB231
:104DD0003B685B690A4379694833DB000B445A60DE
:104DE0003B68DB69012B22D17B69D3F80C22FB687D
:104DF0001A437B69C3F80C223B681B6819043B68A3
:104E00005B689BB23A68526919437B69483243F840
:104E100032103B689B6819043B68DB689AB23B68B8
:104E20005B690A4379694833DB000B445A603B688D
:104E30009B69002B09D17B69D3F80422FB68DB4313
:104E40001A407B69C3F8042207E07B69D3F8042287
:104E5000FB681A437B69C3F804223B681B69002B7B
:104E600009D17B69D3F81422FB68DB431A407B69C4
:104E7000C3F8142207E07B69D3F81422FB681A43B5
:104E80007B69C3F814223B681B6A012B07D17B693D
:104E9000D3F81C22FB681A437B69C3F81C227B6988
:104EA000D3F8003223F001027B69C3F8002200230B
:104EB00006E07B685B6A43F480227B685A620123C8
:104EC00018461C37BD465DF8047B704700640040FF
:104ED00080B584B000AF78607B6893F82030DBB297
:104EE000012B2ED17B68022283F820207B681B686F
:104EF0001A687B681B6822F001021A60FFF760F9EC
:104F0000F86012E0FFF75CF90246FB68D31A0A2B3F
:104F10000BD97B685B6A43F400327B685A627B681A
:104F2000052283F82020012312E07B681B685B6860
:104F300003F00103002BE5D17B6800225A620023B5
:104F400006E07B685B6A43F400227B685A620123B7
:104F500018461037BD4680BD80B487B000AFF860FA
:104F6000B9607A603B60FB6893F82030FB75FB7D8D
:104F7000012B03D0FB7D022B40F0F380BB68002B9C
:104F80000ED1FB681B68DB6803F00303002B16D10E
:104F9000FB685B6A43F40012FB685A620123E7E096
:104FA000FB681B681B6903F00303002B07D1FB6838
:104FB0005B6A43F40012FB685A620123D8E0FB6885
:104FC0001A68BB681B331B0113441B6803F00402FF
:104FD0007B689A607B689B68002B0CD1FB681A6821
:104FE000BB681B331B0113441B685B0DC3F30A0230
:104FF0007B681A600BE0FB681A68BB681B331B01F7
:1050000013441B68DB0823F060427B685A60FB682E
:105010001A68BB681B331B0113441B6803F00202B0
:105020007B68DA60FB681A68BB681B331B0113449A
:1050300004331B6803F00F027B681A61FB681A686F
:10504000BB681B331B01134404331B681B0ADAB211
:105050007B689A61FB681A68BB681B331B011344A9
:1050600004331B681B0C9AB27B685A61FB681A6890
:10507000BB681B01134403F5DC731B68DAB23B68A1
:105080001A70FB681A68BB681B01134403F5DC73D4
:105090001B681A0A3B680133D2B21A70FB681A689F
:1050A000BB681B01134403F5DC731B681A0C3B68D7
:1050B0000233D2B21A70FB681A68BB681B01134432
:1050C00003F5DC731B681A0E3B680333D2B21A7007
:1050D000FB681A68BB681B01134403F5DE731A688A
:1050E0003B680433D2B21A70FB681A68BB681B01B4
:1050F000134403F5DE731B681A0A3B680533D2B20A
:105100001A70FB681A68BB681B01134403F5DE7351
:105110001B681A0C3B680633D2B21A70FB681A6817
:10512000BB681B01134403F5DE731B681A0E3B6852
:105130000733D2B21A70BB68002B08D1FB681B681A
:10514000DA68FB681B6842F02002DA6007E0FB685F
:105150001B681A69FB681B6842F020021A61002371
:1051600006E0FB685B6A43F48022FB685A62012315
:1051700018461C37BD465DF8047B704780B485B087
:1051800000AF786039607B6893F82030FB73FB7B5D
:10519000012B02D0FB7B022B09D17B681B6859696C
:1051A0007B681B683A680A435A61002306E07B6803
:1051B0005B6A43F480227B685A62012318461437E5
:1051C000BD465DF8047B704780B485B000AF786061
:1051D00039607B6893F82030FB73FB7B012B02D096
:1051E000FB7B022B0AD17B681B6859693B68DA4359
:1051F0007B681B680A405A61002306E07B685B6A93
:1052000043F480227B685A62012318461437BD4656
:105210005DF8047B704780B58AB000AF78600023EA
:105220007B627B681B685B693B627B681B685B68B1
:10523000FB617B681B689B68BB617B681B68DB68E4
:105240007B617B681B681B693B617B681B689B6992
:10525000FB603B6A03F00103002B7CD0BB6903F0C9
:105260000103002B23D07B681B6801229A60BB6975
:1052700003F00203002B03D0786800F083F916E0F6
:10528000BB6903F00403002B04D07B6A43F4006382
:105290007B620CE0BB6903F00803002B04D07B6A3F
:1052A00043F480537B6202E0786800F089F9BB69BF
:1052B00003F48073002B24D07B681B684FF480724A
:1052C0009A60BB6903F40073002B03D0786800F088
:1052D00063F916E0BB6903F48063002B04D07B6A9A
:1052E00043F400537B620CE0BB6903F40063002BC2
:1052F00004D07B6A43F480437B6202E0786800F06C
:1053000069F9BB6903F48033002B24D07B681B68E8
:105310004FF480329A60BB6903F40033002B03D052
:10532000786800F043F916E0BB6903F48023002B92
:1053300004D07B6A43F400437B620CE0BB6903F456
:105340000023002B04D07B6A43F480337B6202E0AD
:10535000786800F049F93B6A03F00803002B0CD091
:105360007B6903F01003002B07D07B6A43F40073C2
:105370007B627B681B681022DA603B6A03F00403DF
:10538000002B0BD07B6903F00803002B06D07B6851
:105390001B680822DA607868FCF7E8FF3B6A03F0D4
:1053A0000203002B09D07B681B68DB6803F0030352
:1053B000002B02D07868FCF7A1FE3B6A03F04003A3
:1053C000002B0CD03B6903F01003002B07D07B6A45
:1053D00043F480637B627B681B6810221A613B6A1E
:1053E00003F02003002B0BD03B6903F00803002BD4
:1053F00006D07B681B6808221A61786800F008F9FB
:105400003B6A03F01003002B09D07B681B681B6903
:1054100003F00303002B02D0786800F0EFF83B6A3A
:1054200003F40033002B0BD0FB6903F01003002BB7
:1054300006D07B681B6810225A60786800F0F2F88A
:105440003B6A03F48033002B0BD0FB6903F00803A5
:10545000002B06D07B681B6808225A60786800F031
:10546000EBF83B6A03F40043002B7BD0FB6903F0AD
:105470000403002B72D03B6A03F48073002B08D026
:10548000FB6803F00103002B03D07B6A43F00103A8
:105490007B623B6A03F40073002B08D0FB6803F0C7
:1054A0000203002B03D07B6A43F002037B623B6A5A
:1054B00003F48063002B08D0FB6803F00403002B87
:1054C00003D07B6A43F004037B623B6A03F400630E
:1054D000002B43D0FB6803F07003002B3ED0FB6829
:1054E00003F07003602B2BD0602B2ED8502B22D0D2
:1054F000502B2AD8402B19D0402B26D8302B10D037
:10550000302B22D8102B02D0202B05D01DE07B6A37
:1055100043F008037B6219E07B6A43F010037B626F
:1055200014E07B6A43F020037B620FE07B6A43F068
:1055300040037B620AE07B6A43F080037B6205E004
:105540007B6A43F480737B6200E000BF7B681B686A
:105550009A697B681B6822F070029A617B681B68FD
:1055600004225A607B6A002B08D07B685A6A7B6AE7
:105570001A437B685A627868FDF700F800BF283745
:10558000BD4680BD80B483B000AF786000BF0C37EB
:10559000BD465DF8047B704780B483B000AF78608F
:1055A00000BF0C37BD465DF8047B704780B483B004
:1055B00000AF786000BF0C37BD465DF8047B7047D4
:1055C00080B483B000AF786000BF0C37BD465DF893
:1055D000047B704780B483B000AF786000BF0C37A5
:1055E000BD465DF8047B704780B483B000AF78603F
:1055F00000BF0C37BD465DF8047B704780B483B0B4
:1056000000AF786000BF0C37BD465DF8047B704783
:1056100080B483B000AF786000BF0C37BD465DF842
:10562000047B704780B483B000AF786000BF0C3754
:10563000BD465DF8047B704780B483B000AF7860EE
:1056400000BF0C37BD465DF8047B704780B485B061
:1056500000AF78607B6803F00703FB600C4BDB68EE
:10566000BB60BA684FF6FF031340BB60FB681A02C9
:10567000BB68134343F0BF6343F40033BB60044A89
:10568000BB68D36000BF1437BD465DF8047B70472C
:1056900000ED00E080B400AF044BDB681B0A03F0B0
:1056A00007031846BD465DF8047B704700ED00E037
:1056B00080B483B000AF0346FB7197F90730002B2D
:1056C0000BDBFB7903F01F02074997F907305B09F1
:1056D000012000FA02F241F8232000BF0C37BD463A
:1056E0005DF8047B704700BF00E100E080B483B048
:1056F00000AF03463960FB7197F90730002B0ADBD6
:105700003B68DAB20C4997F907301201D2B20B4468
:1057100083F800230AE03B68DAB20849FB7903F01A
:105720000F03043B1201D2B20B441A7600BF0C37B0
:10573000BD465DF8047B704700E100E000ED00E04D
:1057400080B489B000AFF860B9607A60FB6803F09C
:105750000703FB61FB69C3F10703042B28BF042384
:10576000BB61FB690433062B02D9FB69033B00E0F4
:1057700000237B614FF0FF32BB6902FA03F3DA4387
:10578000BB681A407B699A404FF0FF317B6901FA90
:1057900003F3D9437B680B40134318462437BD46B7
:1057A0005DF8047B7047000080B582B000AF786080
:1057B0007B68013BB3F1807F01D301230FE00A4AEC
:1057C0007B68013B53600F214FF0FF30FFF78EFFE6
:1057D000054B00229A60044B07221A6000231846EA
:1057E0000837BD4680BD00BF10E000E080B582B044
:1057F00000AF78607868FFF729FF00BF0837BD4623
:1058000080BD80B586B000AF0346B9607A60FB7397
:1058100000237B61FFF73EFF78617A68B968786999
:10582000FFF78EFF024697F90F3011461846FFF733
:105830005DFF00BF1837BD4680BD80B582B000AFA8
:105840000346FB7197F907301846FFF731FF00BF99
:105850000837BD4680BD80B582B000AF78607868FB
:10586000FFF7A2FF034618460837BD4680BD80B546
:1058700000AF00F002F800BF80BD80B400AF00BFF1
:10588000BD465DF8047B704780B586B000AF786098
:1058900000237B61FEF794FC38617B68002B01D10B
:1058A000012399E07B68022283F835207B6800227F
:1058B00083F834207B681B681A687B681B6822F0B9
:1058C00001021A600FE0FEF77BFC02463B69D31A27
:1058D000052B08D97B6820225A657B68032283F850
:1058E0003520032378E07B681B681B6803F0010305
:1058F000002BE8D17B681B681B687B617A69384B99
:1059000013407B617B685A687B689B681A437B689D
:10591000DB681A437B681B691A437B685B691A431F
:105920007B689B691A437B68DB691A437B681B6A47
:1059300013437A6913437B617B685B6A042B07D14D
:105940007B68DA6A7B681B6B13437A6913437B615C
:105950007B681B687A691A607B681B685B697B617E
:105960007B6923F007037B617B685B6A7A69134379
:105970007B617B685B6A042B17D17B689B6A7A69C1
:1059800013437B617B68DB6A002B0ED0786800F0E4
:105990001BFB0346002B08D07B6840225A657B68BE
:1059A000012283F83520012316E07B681B687A69A1
:1059B0005A61786800F0D2FA0346FB607B68DB6DC1
:1059C0003F229A40FB689A607B6800225A657B6898
:1059D000012283F83520002318461837BD4680BDC4
:1059E0003F8010F080B586B000AFF860B9607A6093
:1059F0003B600023FB75FB689B6D3B61FB6893F884
:105A00003430012B01D1022340E0FB68012283F8EE
:105A10003420FB6893F83530DBB2012B2FD1FB68C3
:105A2000022283F83520FB6800225A653B687A68B9
:105A3000B968F86800F064FAFB68DB6D3F229A40B1
:105A40003B699A60FB681B681A68FB681B6842F038
:105A500016021A60FB681B6C002B07D0FB681B68E2
:105A60001A68FB681B6842F008021A60FB681B6832
:105A70001A68FB681B6842F001021A6005E0FB68C7
:105A8000002283F834200223FB75FB7D184618376B
:105A9000BD4680BD80B584B000AF78607B689B6DEB
:105AA000FB60FEF78DFBB8607B6893F83530DBB2A6
:105AB000022B08D07B6880225A657B68002283F81D
:105AC0003420012352E07B681B681A687B681B68DE
:105AD00022F016021A607B681B685A697B681B6893
